:020000001628C0
:0E0006008312031321088A00200882000800DC
:1000140003208A110A128000840AA00A0319A10A83
:08002400F003031D0A28080087
:10002C0083120313A201A301C030A400F930A50070
:10003C00A430A600B030A7009930A8009230A900D7
:10004C008230AA00F830AB008030AC009030AD00AC
:10005C0083168601FF30831286002208243E84001A
:10006C00000886000B30FB002630FC005D30FD00E4
:10007C00FD0B3E28FC0B3E28FB0B3E28000000002D
:10008C00A20A0319A30A00302306031D4F280A30C5
:0E009C002206031D5328A201A3013328542875
:02400E004A2F37
:00000001FF
