:020000001628C0
:0E0006008312031323088A00220882000800D8
:1000140003208A110A128000840AA20A0319A30A7F
:08002400F003031D0A28080087
:10002C008316031387018801831288018701063028
:10003C00FB001330FC00AD30FD00FD0B2328FC0B46
:10004C002328FB0B2328000000000130A000003007
:10005C00A1008030F000803021067002031D38288A
:10006C0020087D3C031CAE2880308800C3308700FC
:10007C000330FC009730FD00FD0B4228FC0B42289E
:10008C000000000040308800C33087000330FC00C3
:10009C009730FD00FD0B5028FC0B50280000000091
:1000AC0020308800C33087000330FC009730FD00FF
:1000BC00FD0B5E28FC0B5E28000000001030880051
:1000CC00FF3087000330FC009730FD00FD0B6C28DF
:1000DC00FC0B6C280000000008308800FF30870003
:1000EC000330FC009730FD00FD0B7A28FC0B7A28BE
:1000FC000000000004308800C33087000330FC008F
:10010C009730FD00FD0B8828FC0B882800000000B0
:10011C0002308800C33087000330FC009730FD00AC
:10012C00FD0B9628FC0B962800000000013088007F
:10013C00C33087000330FC009730FD00FD0BA42872
:10014C00FC0BA42800000000A00A0319A10A2F2808
:10015C00870188010630FB001330FC00AD30FD0038
:10016C00FD0BB628FC0BB628FB0BB62800000000D4
:10017C000130A0000030A1008030F000803021065A
:10018C007002031DCB2820087D3C031C41298030C4
:10019C008800FF3087000330FC009730FD00FD0B1A
:1001AC00D528FC0BD5280000000040308800FF301B
:1001BC0087000330FC009730FD00FD0BE328FC0B9F
:1001CC00E3280000000020308800603087000330F6
:1001DC00FC009730FD00FD0BF128FC0BF128000012
:1001EC00000010308800303087000330FC0097305E
:1001FC00FD00FD0BFF28FC0BFF2800000000083061
:10020C008800303087000330FC009730FD00FD0B78
:10021C000D29FC0B0D290000000004308800603013
:10022C0087000330FC009730FD00FD0B1B29FC0BF5
:10023C001B290000000002308800FF3087000330CB
:10024C00FC009730FD00FD0B2929FC0B292900002F
:10025C00000001308800FF3087000330FC0097302D
:10026C00FD00FD0B3729FC0B372900000000A00A0C
:10027C000319A10AC228880187010630FB0013303C
:10028C00FC00AD30FD00FD0B4929FC0B4929FB0B93
:10029C004929000000000130A0000030A10080308E
:1002AC00F000803021067002031D5E2920087D3C81
:1002BC00031CD2298030880087010330FC00973062
:1002CC00FD00FD0B6729FC0B672900000000403086
:1002DC008800FF3087000330FC009730FD00FD0BD9
:1002EC007529FC0B75290000000020308800FF30B8
:1002FC0087000330FC009730FD00FD0B8329FC0BBD
:10030C0083290000000010308800CC3087000330B7
:10031C00FC009730FD00FD0B9129FC0B912900008E
:10032C00000008308800CC3087000330FC00973088
:10033C00FD00FD0B9F29FC0B9F29000000000430E1
:10034C008800F73087000330FC009730FD00FD0B70
:10035C00AD29FC0BAD29000000000230880077307D
:10036C0087000330FC009730FD00FD0BBB29FC0B14
:10037C00BB29000000000130880087010330FC001D
:10038C009730FD00FD0BC829FC0BC82900000000AC
:10039C00A00A0319A10A5529880187010630FB0020
:1003AC001330FC00AD30FD00FD0BDA29FC0BDA2913
:1003BC00FB0BDA2900000000A001A101803021060E
:1003CC00F00080307002031DED297D3020020318EF
:1003DC00612A8030880087010330FC009730FD00D3
:1003EC00FD0BF629FC0BF6290000000040308800BC
:1003FC007F3087000330FC009730FD00FD0B042A92
:10040C00FC0B042A0000000020308800FF3087001D
:10041C000330FC009730FD00FD0B122AFC0B122A56
:10042C000000000010308800CC3087000330FC0046
:10043C009730FD00FD0B202AFC0B202A0000000049
:10044C0008308800CC3087000330FC009730FD006A
:10045C00FD0B2E2AFC0B2E2A000000000430880015
:10046C00FF3087000330FC009730FD00FD0B3C2A69
:10047C00FC0B3C2A00000000023088007F30870013
:10048C000330FC009730FD00FD0B4A2AFC0B4A2A76
:10049C00000000000130880087010330FC00973019
:1004AC00FD00FD0B572AFC0B572A00000000A00A88
:1004BC000319A10AE429880187010630FB001330D7
:1004CC00FC00AD30FD00FD0B692AFC0B692AFB0B0F
:1004DC00692A000000000130A0000030A10080302B
:1004EC00F000803021067002031D7E2A20087D3C1E
:1004FC00031CF22A8030880087010330FC009730FF
:10050C00FD00FD0B872AFC0B872A00000000403001
:10051C008800FF3087000330FC009730FD00FD0B96
:10052C00952AFC0B952A0000000020308800FF3033
:10053C0087000330FC009730FD00FD0BA32AFC0B59
:10054C00A32A0000000010308800303087000330F0
:10055C00FC009730FD00FD0BB12AFC0BB12A00000A
:10056C00000008308800183087000330FC009730FA
:10057C00FD00FD0BBF2AFC0BBF2A0000000004305D
:10058C008800FF3087000330FC009730FD00FD0B26
:10059C00CD2AFC0BCD2A0000000002308800FF3071
:1005AC0087000330FC009730FD00FD0BDB2AFC0BB1
:1005BC00DB2A000000000130880087010330FC00BA
:1005CC009730FD00FD0BE82AFC0BE82A0000000028
:0C05DC00A00A0319A10A752A1A28F32AA4
:02400E004A2F37
:00000001FF
