:0200000066296F
:1000060083120313F801F9011030FC00710DF80D8D
:10001600F90D7408F8027508031C750FF902031828
:100026001B287408F80775080318750FF9070310DD
:0A003600F00DF10DFC0B0928080085
:100040000E3083120313FD00FD0B2428000008006E
:100050008316031398182E280000282883124208BC
:0400600099000800FB
:1000640083120313C50105304502031840284508CF
:100074004407840020308000C50A35284508440719
:1000840084008001C50345084407C6000A30F40013
:10009400F5014208F0004308F10003207808F0005D
:1000A4007908F1003030F0074608840070088000B9
:1000B4000A30F400F5014208F0004308F10003207F
:1000C4007008C2007108C30000307106031D6C285B
:1000D40000307006031D6F287128C50345280800E9
:0E00E400831203132F088A002E0882000800E2
:1000F200831603139816903083129800831687177D
:10010200071383128C1E88281A08F0008228080020
:10011200831203139F01C0309F0483161F179F177A
:1001220083123908F000F00D7010F00D7010F00D10
:10013200701070089F041F1420201F151F1DA32874
:1001420000009F281F101E08F100F00183161E08F0
:08015200F0040030F104080084
:10015A00FF3083120313B600FF30B700FF30B80038
:10016A00FF309F01C0309F0483161F179F17831209
:04017A001F14080046
:10017E00831203133908F2007208F100F20A3A08EA
:10018E00F000BA0A700884000008F00071088400BC
:10019E00700880007108840000080319D728C3284E
:0601AE003908F000080012
:1001B40083120313BB01390884000008BA003A080B
:1001C400003A0319EF283A08C2002820BB0A3B086A
:0C01D400390784000008BA00E128080088
:1001E00083120313BE01BF013908C0003A08C100E1
:1001F00080303A06F00080307002031D0129003083
:10020000390203180F290130BE000030BF00390841
:10021000003CC0003A08031C013EC101C102400875
:10022000C2004108C3003B08C40032200630BC00B5
:100230000030BD003D08003C031D20293C08003C67
:1002400003183B293C083B07F20001303C02F00058
:100250000030031C013E3D02F10070083B078400A2
:100260000008F00072088400700880000130BC02B1
:10027000031CBD031A293B088400203080003E087F
:100280003F0403195929BC01BD013C083B07840008
:100290000008203A031D5029BC0A0319BD0A45294C
:1002A0000130BC02031CBD033C083B0784002D3019
:0402B00080000800C2
:1002B40072208A110A128000840AAE0A0319AF0A56
:0802C400F003031D5A29080094
:1002CC00413083120313A0006E30A1006130A200F4
:1002DC006C30A3006F30A4006730A5002030A6005E
:1002EC007630A7006130A8006C30A9007530AA00E8
:1002FC003D30AB00AC01AD013330831699001815BD
:10030C007920AD20B901892070088312B0007108E2
:10031C00B1007008B9007108BA003230BB00F0208F
:10032C002030B900DA203230B900DA203230B9008E
:10033C002D30BA00BF200D30C20028200B30FB003E
:10034C002630FC005D30FD00FD0BAA29FC0BAA2910
:0C035C00FB0BAA29000000008829B3292F
:02400E004A2F37
:00000001FF
