:02000000AB282B
:10000600710DF80DF90D7408F8027508031C750FCB
:10001600F902F00DF10D0F30FC00710DF80DF90D20
:100026007408701C1C28F8027508031C750FF90269
:100036002128F80775080318750FF907F00DF10D5B
:10004600FC0B102870182D287408F807750803187B
:08005600750FF9070000080016
:0E005E008312031335088A003408820008005C
:10006C002F208A110A128000840AB40A0319B50AD7
:08007C00F003031D3628080003
:10008400831203137408003A031D51287508003ABB
:10009400031D5128FF30F0007F30F100AA2883129D
:1000A4000313FD01F901F801710870040319003408
:1000B40071087506FA00FA1BFD09FB01F51F672894
:1000C400F409F509F40A0319F50AF11F6E28F00979
:1000D400F109F00A0319F10A71087504FA00FA1B10
:1000E400832803207B189628FD1F0034F009F109AA
:1000F400F00A0319F10AF809F909F80A0319F90AC7
:100104000034F51F9228F11B8E287108F90070083D
:10011400F800F101F0017628F101F001F00A003451
:10012400F109F009FB0A7328F80A0319F90A74089B
:100134007802031D762875087902031D7628F901D3
:10014400F801F00A0319F10AF11F76280000FF34C0
:020154000800A1
:100156003F3083120313A000A1010630A200A301C1
:100166005B30A400A5014F30A600A7016630A800A9
:10017600A9016D30AA00AB017D30AC00AD0107309E
:10018600AE00AF017F30B000B1016F30B200B301F5
:100196006430BE000030BF008316870188018312D9
:1001A600870188016430F4000030F5003E08F00055
:1001B6003F08F10042207008B8007108B9006430A9
:1001C600F4000030F5003E08F0003F08F100422040
:1001D6007808F0007908F1007008C0007108C100C5
:1001E6000A30F4000030F5004008F0004108F10044
:1001F60042207008BC007108BD000A30F4000030CF
:10020600F5004008F0004108F10042207808F000AF
:100216007908F1007008BA007108BB00B601B70191
:1002260080303706F00080307002031D1C29223012
:1002360036020318682908143808F0003908F10056
:10024600F00DF10D70107008203E84000008870044
:1002560088101A30FC00F830FD00FD0B3029FC0B2D
:100266003029000088143C08F0003D08F100F00D2C
:10027600F10D70107008203E8400000887000811F8
:100286001A30FC00F830FD00FD0B4729FC0B47290E
:10029600000008153A08F0003B08F100F00DF10DDA
:1002A60070107008203E84000008870088111A30FC
:1002B600FC00F830FD00FD0B5E29FC0B5E290000FA
:1002C6008815B60A0319B70A1329BE0A0319BF0A05
:1002D6008030033AF00080303F067002031D752916
:1002E6003E08E73C03187B296430BE000030BF009F
:0402F600D5287C2962
:02400E004A2F37
:00000001FF
